:020000040800F2
:1000000000000820615200083F2400084524000831
:100010004B24000851240008572400080000000069
:10002000000000000000000000000000F1120008C5
:100030005D24000800000000AD120008DD1100087A
:10004000B1520008B1520008B1520008B152000884
:10005000B1520008B1520008B1520008B152000874
:10006000B1520008B1520008B1520008B152000864
:100070006B240008B1520008B1520008B1520008C8
:10008000B1520008B1520008B1520008B152000844
:10009000B1520008B1520008B1520008B152000834
:1000A000B1520008B1520008B1520008B152000824
:1000B000B1520008B1520008B1520008B152000814
:1000C000B1520008B1520008B1520008B152000804
:1000D000B1520008B1520008B1520008B1520008F4
:1000E000B1520008B1520008B1520008B1520008E4
:1000F000B1520008B1520008B1520008B1520008D4
:10010000B1520008B152000879240008B152000829
:10011000B1520008B1520008B1520008B1520008B3
:10012000B1520008B1520008B1520008B1520008A3
:10013000B1520008B1520008B1520008B152000893
:10014000B1520008B1520008B1520008B152000883
:10015000B1520008B1520008B1520008B152000873
:10016000B1520008B1520008B1520008B152000863
:10017000B1520008B1520008B1520008000000005E
:10018000B1520008B1520008B1520008B152000843
:10019000B1520008B1520008B1520008B152000833
:1001A000B1520008B1520008B1520008B152000823
:1001B000B1520008B1520008B1520008B152000813
:1001C000B1520008B152000800000000B15200080E
:1001D000B1520008B1520008B1520008B1520008F3
:1001E000B1520008B1520008B1520008B1520008E3
:0801F000B1520008B1520008F1
:1001F80010B5054C237833B9044B13B10448AFF359
:1002080000800123237010BD48000020000000007A
:100218000C53000808B5034B1BB103490348AFF35F
:10022800008008BD000000004C0000200C530008AE
:1002380080B485B000AF78607B681B6803F060030A
:10024800FB60FB68002B04D17B681B6803F010037C
:10025800FB60FB6818461437BD465DF8047B7047A1
:1002680080B483B000AF78607B681B6B18460C378E
:10027800BD465DF8047B704780B483B000AF7860FA
:1002880039607B681A6A3B681A437B681A6200BF48
:100298000C37BD465DF8047B704780B483B000AF6F
:1002A800786039607B681A6A3B68DB431A407B6870
:1002B8001A6200BF0C37BD465DF8047B704780B4F6
:1002C80083B000AF78607B685B6C43F400427B6866
:1002D8005A6400BF0C37BD465DF8047B704780B494
:1002E80083B000AF78607B68DB6843F001027B680D
:1002F800DA6000BF0C37BD465DF8047B704780B4F8
:1003080083B000AF78607B68DB6823F001027B680C
:10031800DA6000BF0C37BD465DF8047B704780B4D7
:1003280083B000AF78607B68DB6803F00103012BC2
:1003380001D1012300E0002318460C37BD465DF8C3
:10034800047B704780B483B000AF78607B68DB685B
:1003580043F002027B68DA6000BF0C37BD465DF8E7
:10036800047B704780B483B000AF78607B68DB683B
:1003780023F002027B68DA6000BF0C37BD465DF8E7
:10038800047B704780B483B000AF78607B68DB681B
:1003980003F00203022B01D1012300E000231846D9
:1003A8000C37BD465DF8047B704780B483B000AF5E
:1003B80078607B68DB6843F004027B68DA6000BF22
:1003C8000C37BD465DF8047B704780B483B000AF3E
:1003D80078607B68DB6823F004027B68DA6000BF22
:1003E8000C37BD465DF8047B704780B483B000AF1E
:1003F80078607B68DB6803F00403042B01D10123D8
:1004080000E0002318460C37BD465DF8047B7047B2
:1004180080B483B000AF78607B68DB6843F0080283
:100428007B68DA6000BF0C37BD465DF8047B704717
:1004380080B483B000AF78607B68DB6823F0080283
:100448007B68DA6000BF0C37BD465DF8047B7047F7
:1004580080B483B000AF78607B68DB6803F0080382
:10046800082B01D1012300E0002318460C37BD46B4
:100478005DF8047B704780B483B000AF78607B6818
:10048800DB6843F010027B68DA6000BF0C37BD46BA
:100498005DF8047B704780B483B000AF78607B68F8
:1004A800DB6823F010027B68DA6000BF0C37BD46BA
:1004B8005DF8047B704780B483B000AF78607B68D8
:1004C800DB6803F01003102B01D1012300E00023A7
:1004D80018460C37BD465DF8047B704780B483B07E
:1004E80000AF78607B68DB6843F020027B68DA60E5
:1004F80000BF0C37BD465DF8047B704780B483B0FD
:1005080000AF78607B68DB6823F020027B68DA60E4
:1005180000BF0C37BD465DF8047B704780B483B0DC
:1005280000AF78607B68DB6803F02003202B01D1E3
:10053800012300E0002318460C37BD465DF8047B14
:10054800704780B483B000AF78607B68DB6843F0A5
:1005580040027B68DA6000BF0C37BD465DF8047B5B
:10056800704780B483B000AF78607B68DB6823F0A5
:1005780040027B68DA6000BF0C37BD465DF8047B3B
:10058800704780B483B000AF78607B68DB6803F0A5
:100598004003402B01D1012300E0002318460C370B
:1005A800BD465DF8047B704780B483B000AF7860C7
:1005B8007B68DB6843F080027B68DA6000BF0C3739
:1005C800BD465DF8047B704780B483B000AF7860A7
:1005D8007B68DB6823F080027B68DA6000BF0C3739
:1005E800BD465DF8047B704780B483B000AF786087
:1005F8007B68DB6803F08003802B01D1012300E0D6
:10060800002318460C37BD465DF8047B704780B55B
:1006180082B000AF78600B467B807B8803F00103D3
:10062800002B0CD07B681B681846FFF7AAFF03460F
:10063800012B04D07B681B681846FFF782FF7B8874
:1006480003F00203002B0CD07B681B681846FFF7E9
:1006580099FE0346012B04D07B681B681846FFF7F8
:1006680071FE7B8803F00403002B0CD07B681B68A9
:100678001846FFF7BAFE0346012B04D07B681B68B7
:100688001846FFF792FE7B8803F00803002B0CD076
:100698007B681B681846FFF7DBFE0346012B04D076
:1006A8007B681B681846FFF7B3FE7B8803F01003CE
:1006B800002B0CD07B681B681846FFF7FCFE03462E
:1006C800012B04D07B681B681846FFF7D4FE7B8893
:1006D80003F02003002B0CD07B681B681846FFF73B
:1006E8001EFE0346012B04D07B681B681846FFF7E3
:1006F800F6FD7B8803F04003002B0CD07B681B6859
:100708001846FFF771FF0346012B04D07B681B686E
:100718001846FFF749FF7B8803F08003002B0CD0B5
:100728007B681B681846FFF7F9FE0346012B04D0C7
:100738007B681B681846FFF7D1FE00BF0837BD4627
:1007480080BD80B582B000AF78600B467B807B8827
:1007580003F00103002B0CD07B681B681846FFF7D9
:1007680010FF0346012B04D17B681B681846FFF76E
:10077800F8FE7B8803F00203002B0CD07B681B6813
:100788001846FFF7FFFD0346012B04D17B681B6861
:100798001846FFF7E7FD7B8803F00403002B0CD015
:1007A8007B681B681846FFF720FE0346012B04D11F
:1007B8007B681B681846FFF708FE7B8803F0080370
:1007C800002B0CD07B681B681846FFF741FE0346D8
:1007D800012B04D17B681B681846FFF729FE7B882C
:1007E80003F01003002B0CD07B681B681846FFF73A
:1007F80062FE0346012B04D17B681B681846FFF78D
:100808004AFE7B8803F02003002B0CD07B681B6812
:100818001846FFF784FD0346012B04D07B681B684C
:100828001846FFF76CFD7B8803F04003002B0CD0C3
:100838007B681B681846FFF7D7FE0346012B04D1D7
:100848007B681B681846FFF7BFFE7B8803F08003B0
:10085800002B0CD07B681B681846FFF75FFE034629
:10086800012B04D17B681B681846FFF747FE00BFC1
:100878000837BD4680BD000080B582B000AF786003
:100888000B46FB70FB78022B06D17B681B680121A5
:100898001846FFF7F1FC22E07B681B68124A934276
:1008A80004D07B681B68114A934218D1FB78032B4C
:1008B80006D17B681B6804211846FFF7DDFC0EE0B3
:1008C800FB78042B0BD17B681B6801211846FFF7C6
:1008D800D3FC7B681B6804211846FFF7CDFC00BFDA
:1008E8000837BD4680BD00BF00000140000401403C
:1008F80080B582B000AF78600B46FB70FB78022BA6
:1009080006D17B681B6801211846FFF7C6FC22E068
:100918007B681B68124A934204D07B681B68114AA3
:10092800934218D1FB78032B06D17B681B680421FE
:100938001846FFF7B2FC0EE0FB78042B0BD17B685E
:100948001B6801211846FFF7A8FC7B681B68042177
:100958001846FFF7A2FC00BF0837BD4680BD00BFA0
:10096800000001400004014080B584B000AF786009
:100978000023FB607B681B68214A934201D1214B0D
:10098800FB607B681A68FB681A60FB681B6818467E
:10099800FFF74EFCB860BB68002B06D0BB68102B75
:1009A80003D0FB6801221A7102E0FB6800221A7169
:1009B800FB681B68124A934204D0FB681B68124A02
:1009C800934204D1FB681B681846FFF778FCFB6864
:1009D8001B680B4A934204D0FB681B680A4A93427F
:1009E80008D17B681B681846FFF73AFC0346DAB261
:1009F800FB685A71FB6818461037BD4680BD00BFBA
:100A080000000140700000200004014080B500AFE4
:100A18000F4B1B785A1CD1B20D4A1170002B09D00C
:100A28000C4B01221A600A4B1B78013BDAB2084BC7
:100A38001A700BE062B600BF00F056FA72B600BF3B
:100A4800034B1B78013BDAB2014B1A7080BD00BF23
:100A5800680000206400002080B584B000AF786092
:100A680039602D4BFB602D4BBB602D4B00221A705B
:100A78002C4B00221A7001DF03F068FE01F096F992
:100A880000F030FB01F066FB01F04CFB01F084FA4A
:100A980001F01AFB01F0E0F9234B1B6800221A60F1
:100AA80000F0C4FA72B600BF97ED030A00F0A2FB8B
:100AB8001D4B1B681B68002B0CBF01230023DBB2F6
:100AC8001A46184B1A7062B600BF62B600BF15E02E
:100AD800154B1B681B68002B14BF01230023DBB2D6
:100AE8001A460F4B1A700E4B1B78DBB2002B05D041
:100AF8000E4B1B680D4A23F001031360094B1B784A
:100B0800DBB2002BE4D100F0A9FA72B600BF0023D3
:100B180018461037BD4680BDCDCC4C3E000058432A
:100B2800FD000020FC0000202453000810E000E035
:100B380080B483B000AF78607B681B6843F0010223
:100B48007B681A6000BF0C37BD465DF8047B7047B0
:100B580080B483B000AF78607B681B6823F0010223
:100B68007B681A6000BF0C37BD465DF8047B704790
:100B780080B483B000AF786039607B681B6823F06D
:100B880004023B681A437B681A6000BF0C37BD46F5
:100B98005DF8047B704780B483B000AF78607B68F1
:100BA8001B6803F0040318460C37BD465DF8047B48
:100BB800704780B483B000AF78607B68DB6A184602
:100BC8000C37BD465DF8047B704780B483B000AF36
:100BD800786039607B683A681A6300BF0C37BD4695
:100BE8005DF8047B704780B483B000AF78603960EB
:100BF8007B683A685A6300BF0C37BD465DF8047BD2
:100C0800704780B483B000AF78607B685B6B184630
:100C18000C37BD465DF8047B704780B483B000AFE5
:100C280078607B685B6943F001027B685A6100BFAA
:100C38000C37BD465DF8047B704780B483B000AFC5
:100C4800786039607B683A689A6100BF0C37BD46A6
:100C58005DF8047B704780B483B000AF786039607A
:100C68003B681A047B689A6100BF0C37BD465DF883
:100C7800047B704780B584B000AF786087ED000AC8
:100C8800D7ED007AF5EEC07AF1EE10FA03D54FF001
:100C980000033B600AE0D7ED007A9FED167AF4EE88
:100CA800C77AF1EE10FA01DD134B3B607B681B68D5
:100CB8001846FFF77EFFF8607B681B79002B0CBF96
:100CC80001230023DBB21A46FB68134407EE903A6F
:100CD800B8EE677AD7ED007A27EE277ADFED056A56
:100CE800C7EE267AFCEEE77A17EE903A18461037E8
:100CF800BD4680BD0000C8420000C84280B582B031
:100D080000AF786039607B681B681846FFF779FF89
:100D180002463B68934205D07B681B6839681846D1
:100D2800FFF761FF00BF0837BD4680BD80B584B0BE
:100D380000AF786087ED000A97ED000A7868FFF742
:100D480099FFF860F9687868FFF7D8FF00BF103797
:100D5800BD4680BD80B485B000AF78607B681B68F5
:100D68009A680A4B1340FB60FB68062B03D0FB68AC
:100D7800B3F5803F01D1012300E00023DBB2184620
:100D88001437BD465DF8047B704700BF07000100BB
:100D980080B584B000AF78600B46FB707B681B6839
:100DA8001846FFF7F8FEF860FB78002B0FD07B6839
:100DB8001B68234A934204D07B681B68214A9342EC
:100DC80005D17B681B6800211846FFF7FEFEFB680B
:100DD800042B11D07B681B6804211846FFF7C8FE56
:100DE8007B681B681846FFF718FF7B681B68F96863
:100DF8001846FFF7BDFE04E07B681B681846FFF73E
:100E08000CFF7B681B681846FFF792FEFB78002BE7
:100E180011D07B681B680A4A934204D07B681B6820
:100E2800084A934207D17B681A687B685B79194640
:100E38001046FFF7CAFE00BF1037BD4680BD00BF91
:100E4800000001400004014080B582B000AF786026
:100E58007B681B681846FFF77BFE00BF0837BD4656
:100E680080BD000080B5A6B000AF78607B68012225
:100E78005A601C4BBB6000233B7300237B7307F154
:100E880008031846FFF770FD02467B68DA607B6846
:100E9800DB6800211846FFF7BAFB022387F8973072
:100EA8007B68DB6897F8972011461846FFF7E4FC43
:100EB8007B68DB681846FFF74DFF034687F89630D6
:100EC80097F89630002B05D17B68DB68002118461F
:100ED800FFF75EFF7B6801221A7200BF9837BD4694
:100EE80080BD00BF0000014080B586B000AF4C4B0C
:100EF8001B6907EE903AB8EEE76B4A4B93ED047B1B
:100F0800B4EEC76BF1EE10FA07D5454B1B69002B01
:100F180003DB444BD3E9002303E04FF000024FF01A
:100F28000003C7E902233E4B1B6907EE903AB8EE6F
:100F3800E76B3C4B93ED027BB7EE005B37EE457BEE
:100F4800B4EEC76BF1EE10FA03DB354B00221A61E1
:100F580004E0334B1B690133314A1361324B7B6028
:100F680097ED027BB5EE407BF1EE10FA02D08023BC
:100F78007B6101E000237B617B6919467868FFF794
:100F88005CFE7B69DB4303F0800319467868FFF752
:100F980062FE234B5B6907EE903AB8EEE76B214B94
:100FA80093ED0C7BB4EEC76BF1EE10FA07D51C4B32
:100FB8005B69002B03DB1B4BD3E9082303E04FF0ED
:100FC80000024FF00003C7E90223154B5B6907EEE7
:100FD800903AB8EEE76B134B93ED0A7BB7EE005BE4
:100FE80037EE457BB4EEC76BF1EE10FA03DB0C4B22
:100FF80000225A6104E00A4B5B690133084A5361D5
:10100800074BDB6897ED027BF7EEC77BB0EE670A0C
:101018001846FFF78BFE00BF1837BD4680BD00BFDE
:1010280000010020000000200004024080B500AF4D
:10103800094B6FF001021A61074B6FF001025A6108
:10104800054B00225A60044B00221A700248FFF731
:1010580009FF00BF80BD00BF0001002080B582B03D
:1010680000AF134B1B78002B1ED1114B01221A70B5
:101078000F4B5B68012B17D10D4B1B7A002B13D03C
:101088000B4BDB681846FFF7DFFE094BDB680021D6
:101098001846FFF756FB0223FB71054BDB68FA790C
:1010A80011461846FFF724FC00BF0837BD4680BD2F
:1010B8000001002080B584B000AF786003F068FBC1
:1010C800F8607B68BB6000BF03F062FB0246FB6808
:1010D800D31ABA689A42F7D800BF00BF1037BD4686
:1010E80080BD000080B400AF00BFBD465DF8047B42
:1010F800704700BF80B483B000AF03463960FB710E
:1011080097F90730002B0ADB3B68DAB20C4997F9EC
:1011180007301201D2B20B4483F800230AE03B687F
:10112800DAB20849FB7903F00F03043B1201D2B28B
:101138000B441A7600BF0C37BD465DF8047B704738
:1011480000E100E000ED00E080B582B000AF78601B
:101158007B68013BB3F1807F01D301230FE00A4A8A
:101168007B68013B53600F214FF0FF30FFF7C2FF50
:10117800054B00229A60044B07221A600023184688
:101188000837BD4680BD00BF10E000E080B500AF65
:10119800BFF34F8F00BFBFF36F8F00BF0B4B1A68B1
:1011A8000B4B1B689A4202D3084B00221A60074B6C
:1011B8001B685A1C05490A60002B05D172B600BF8E
:1011C800FFF724FC62B600BF00BF80BD1C010020F1
:1011D8001801002080B400AF054B5B68044A43F057
:1011E8008053536000BFBD465DF8047B704700BF65
:1011F80000ED00E080B584B000AF87ED010A234B15
:101208001B6807EE903AB8EE677AD7ED017A67EE79
:10121800277AFCEEE77A17EE903AFB60FB68B3F1A9
:10122800807F18D3FB6807EE903AB8EE677ADFED57
:10123800186AC7EE267AFCEEE77A17EE903A013381
:10124800144A1360134B1B68FA68B2FBF3F3184691
:10125800FFF77AFF05E00F4B00221A60F868FFF7E6
:1012680073FF0D4B00221A600C4A0D4B1A600F21B8
:101278006FF00400FFF73EFF0F216FF00100FFF74A
:1012880039FF00BF1037BD4680BD00BF44000020B5
:10129800FFFF7F4B180100201C010020951100085A
:1012A80020010020EFF3008001B5EFF3118003B4B3
:1012B8001EF0100F08BFB0EE400A0A48006803B4D9
:1012C80088B004A006904FF0807007906FF0060079
:1012D8008646704703BC8047BFF36F8F00DFFEE789
:1012E80000BF0000200100201EF0100F08BFB0EE64
:1012F800400A1EF0040F0CBFEFF30880EFF30980DB
:10130800816911F8020C10B101280DD00BE01EF014
:10131800100F0CBF1AB008B003BC80F3118803BCCF
:1013280080F300880847FEE74EF61451CEF200011C
:101338000A6842F001020A607047F4E700BF00BF84
:1013480080B400AF044BDB681B0A03F007031846A0
:10135800BD465DF8047B704700ED00E080B483B0C3
:1013680000AF0346FB7197F90730002B0BDBFB79C5
:1013780003F01F02074997F907305B09012000FABB
:1013880002F241F8232000BF0C37BD465DF8047B0C
:10139800704700BF00E100E080B483B000AF0346AF
:1013A8003960FB7197F90730002B0ADB3B68DAB22A
:1013B8000C4997F907301201D2B20B4483F8002385
:1013C8000AE03B68DAB20849FB7903F00F03043BF3
:1013D8001201D2B20B441A7600BF0C37BD465DF835
:1013E800047B704700E100E000ED00E080B489B0C4
:1013F80000AFF860B9607A60FB6803F00703FB612F
:10140800FB69C3F10703042B28BF0423BB61FB69F5
:101418000433062B02D9FB69033B00E000237B6100
:101428004FF0FF32BB6902FA03F3DA43BB681A4094
:101438007B699A404FF0FF317B6901FA03F3D94386
:101448007B680B40134318462437BD465DF8047B80
:101458007047000080B485B000AFF860B9607A606A
:101468000D4ABB6813441B781A46FB6813441B6873
:1014780023F0C0020849BB680B441B781946FB6877
:101488000B4419467B6813430B6000BF1437BD46F5
:101498005DF8047B704700BF2853000880B485B00E
:1014A80000AFF860B9607A600D4ABB6813441B78D6
:1014B8001A46FB6813441B6823F490720849BB68FA
:1014C8000B441B781946FB680B4419467B68134389
:1014D8000B6000BF1437BD465DF8047B704700BF42
:1014E8002853000880B485B000AFF860B9607A600E
:1014F8000D4ABB6813441B781A46FB6813441B68E3
:1015080023F400720849BB680B441B781946FB6832
:101518000B4419467B6813430B6000BF1437BD4664
:101528005DF8047B704700BF2853000880B485B07D
:1015380000AFF860B9607A600D4ABB6813441B7845
:101548001A46FB6813441B6823F480620849BB6889
:101558000B441B781946FB680B4419467B681343F8
:101568000B6000BF1437BD465DF8047B704700BFB1
:101578002853000880B485B000AFF860B9607A607D
:101588000D4ABB6813441B781A46FB6813441B6852
:1015980023F4C0520849BB680B441B781946FB6802
:1015A8000B4419467B6813430B6000BF1437BD46D4
:1015B8005DF8047B704700BF2853000880B485B0ED
:1015C80000AFF860B9607A600D4ABB6813441B78B5
:1015D8001A46FB6813441B6823F4C0420849BB68D9
:1015E8000B441B781946FB680B4419467B68134368
:1015F8000B6000BF1437BD465DF8047B704700BF21
:101608002853000880B485B000AFF860B9607A60EC
:101618000D4ABB6813441B781A46FB6813441B68C1
:1016280023F440320849BB680B441B781946FB6811
:101638000B4419467B6813430B6000BF1437BD4643
:101648005DF8047B704700BF2853000880B485B05C
:1016580000AFF860B9607A600D4ABB6813441B7824
:101668001A46FB6813441B6823F0F0520849BB680C
:101678000B441B781946FB680B4419467B681343D7
:101688000B6000BF1437BD465DF8047B704700BF90
:101698002853000880B483B000AF786039600C4AE2
:1016A8003B6813441B781A467B6813445B690849F6
:1016B8003A680A44127811467A680A4423F0040307
:1016C800536100BF0C37BD465DF8047B704700BF0F
:1016D8002853000880B400AF054B1B68044A43F444
:1016E8008023136000BFBD465DF8047B704700BFD0
:1016F8000038024080B400AF054B1B68044A43F42D
:101708008033136000BFBD465DF8047B704700BF9F
:101718000038024080B400AF074B1B6803F4003365
:10172800B3F5003F0CBF01230023DBB21846BD46CA
:101738005DF8047B704700BF0038024080B483B076
:1017480000AF7860064B9B6823F0030204497B686E
:1017580013438B6000BF0C37BD465DF8047B7047B0
:101768000038024080B400AF044B9B6803F00C03C0
:101778001846BD465DF8047B704700BF003802403C
:1017880080B483B000AF7860064B9B6823F0F0020A
:1017980004497B6813438B6000BF0C37BD465DF876
:1017A800047B70470038024080B483B000AF786093
:1017B800064B9B6823F4E05204497B6813438B6013
:1017C80000BF0C37BD465DF8047B70470038024007
:1017D80080B483B000AF7860064B9B6823F4604206
:1017E80004497B6813438B6000BF0C37BD465DF826
:1017F800047B70470038024080B483B000AF786043
:10180800094BD3F890207B681B0CDB431A407B689C
:101818009BB205491343C1F8903000BF0C37BD4651
:101828005DF8047B704700BF0038024080B400AF09
:10183800054B1B68044A43F08073136000BFBD4624
:101848005DF8047B704700BF0038024080B400AFE9
:10185800074B1B6803F00073B3F1007F0CBF012333
:101868000023DBB21846BD465DF8047B704700BF15
:101878000038024080B485B000AFF860B9607A6083
:101888003B600A4B5A680A4B1340F968BA6811431F
:101898007A68920111433A680A43044913434B603A
:1018A80000BF1437BD465DF8047B7047003802401E
:1018B8000080BCFF80B485B000AFF860B9607A6082
:1018C8003B600A4B5A680A4B1340F968BA681143DF
:1018D8007A68920111433A680A43044913434B60FA
:1018E80000BF1437BD465DF8047B704700380240DE
:1018F8000080BFF080B485B000AF7860084B1A6BE9
:1019080007497B6813430B63054B1A6B7B681340CD
:10191800FB60FB6800BF1437BD465DF8047B704769
:101928000038024080B485B000AF7860084B1A6C6C
:1019380007497B6813430B64054B1A6C7B6813409B
:10194800FB60FB6800BF1437BD465DF8047B704739
:101958000038024080B485B000AF7860084B5A6CFC
:1019680007497B6813434B64054B5A6C7B681340EB
:10197800FB60FB6800BF1437BD465DF8047B704709
:101988000038024080B487B000AF78603960174AE9
:101998003B68DBB2023352F823203B681B0CDB4365
:1019A80002EA03013B681B0C3B613B6993FAA3F312
:1019B800FB60FB687B617B69002B01D1202303E07E
:1019C8007B69B3FA83F3DBB21A467B6803FA02F247
:1019D80006483B68DBB20A43023340F8232000BFC5
:1019E8001C37BD465DF8047B704700BF00380140D6
:1019F80080B483B000AF7860064B1B6823F00F02F9
:101A080004497B6813430B6000BF0C37BD465DF883
:101A1800047B7047003C024080B400AF044B1B6855
:101A280003F00F031846BD465DF8047B704700BFFE
:101A3800003C024080B400AF054B1B68044A43F4E5
:101A48008033136000BFBD465DF8047B704700BF5C
:101A58000070004080B483B000AF7860064B1B680C
:101A680023F4404204497B6813430B6000BF0C37E2
:101A7800BD465DF8047B70470070004080B483B0B9
:101A880000AF78607B681B6823F080027B681A606F
:101A980000BF0C37BD465DF8047B704780B485B045
:101AA80000AF786039603B68012B28D03B68042B75
:101AB80023D03B68102B1ED03B68402B19D03B68C5
:101AC800B3F5807F13D03B68B3F5806F0DD03B68CA
:101AD800B3F5805F07D03B68B3F5803F01D107239A
:101AE8000EE008230CE006230AE0052308E004239F
:101AF80006E0032304E0022302E0012300E00023C0
:101B0800FB737B6818331946FB7B0B4AD35C0B4489
:101B1800BB60BB681A68FB7B0849CB5C1946042389
:101B28008B40DB431A40BB681A6000BF1437BD46C0
:101B38005DF8047B704700BF305300083C53000831
:101B480080B485B000AF786039603B68012B28D03D
:101B58003B68042B23D03B68102B1ED03B68402BDE
:101B680019D03B68B3F5807F13D03B68B3F5806F1D
:101B78000DD03B68B3F5805F07D03B68B3F5803F75
:101B880001D107230EE008230CE006230AE0052311
:101B980008E0042306E0032304E0022302E0012313
:101BA80000E00023FB737B6818331946FB7B0A4A65
:101BB800D35C0B44BB60BB681A68FB7B0749CB5CF2
:101BC800194608238B401A43BB681A6000BF1437B4
:101BD800BD465DF8047B7047305300083C5300084D
:101BE80080B483B000AF786039607B685B6823F0AD
:101BF80070023B681A437B685A6000BF0C37BD46C9
:101C08005DF8047B704780B483B000AF78603960BA
:101C18007B685B6823F470023B681A437B685A60F0
:101C280000BF0C37BD465DF8047B704780B483B0B5
:101C380000AF78607B689B6823F080027B689A60BD
:101C480000BF0C37BD465DF8047B704780B483B095
:101C580000AF78607B681B6843F001027B681A60FC
:101C680000BF0C37BD465DF8047B704780B483B075
:101C780000AF78607B685B6823F490427B685A60A9
:101C88007B689B6823F02A027B689A6000BF0C3748
:101C9800BD465DF8047B704780B48BB000AFF86038
:101CA800B9607A60FB681A68BB687B617B6993FAE4
:101CB800A3F33B613B69BB61BB69002B01D12023C6
:101CC80003E0BB69B3FA83F3DBB25B00032101FADB
:101CD80003F3DB431A40BB683B623B6A93FAA3F306
:101CE800FB61FB697B627B6A002B01D1202303E047
:101CF8007B6AB3FA83F3DBB25B00796801FA03F31A
:101D08001A43FB681A6000BF2C37BD465DF8047B98
:101D1800704780B48BB000AFF860B9607A60FB6838
:101D2800DA68BB687B617B6993FAA3F33B613B6923
:101D3800BB61BB69002B01D1202303E0BB69B3FA67
:101D480083F3DBB25B00032101FA03F3DB431A40A0
:101D5800BB683B623B6A93FAA3F3FB61FB697B6256
:101D68007B6A002B01D1202303E07B6AB3FA83F35B
:101D7800DBB25B00796801FA03F31A43FB68DA60A7
:101D880000BF2C37BD465DF8047B704780B483B034
:101D980000AF786039603B681A047B689A6100BFBD
:101DA8000C37BD465DF8047B7047000080B500AF76
:101DB8000720FFF71DFE00BFFFF72EFE0346072B87
:101DC800FAD14FF44040FFF745FEFFF733FEFFF727
:101DD80081FCFFF78FFC00BFFFF79CFC0346012B3B
:101DE800FAD10023D82204214FF48000FFF742FDE6
:101DF8004FF01063D82204214FF48000FFF75AFDFA
:101E0800FFF714FD00BFFFF721FD0346012BFAD1B0
:101E18000020FFF7B5FC4FF4A050FFF7C5FC4FF4C6
:101E28000040FFF7D5FC0220FFF788FC00BFFFF752
:101E380099FC0346082BFAD1064802F07DF80020E9
:101E480000F0B8FB0346002B01D000F0EFFA00BF0A
:101E580080BD00BF00E6DF0C80B59EB000AF07F183
:101E6800640300221A605A609A60DA601A6107F106
:101E7800440320220021184603F03CFA07F11C0312
:101E880028220021184603F035FA3B1D00221A606B
:101E98005A609A60DA601A615A610120FFF75AFDA8
:101EA8000023A7F864300023BB664FF6FF73FB6678
:101EB80000233B6700237B6707F164031946344816
:101EC80001F00CF93248FFF7D9FD01213048FFF73E
:101ED80037FE60237B640023BB640023FB6432234A
:101EE8003B6500237B650023BB650023FB6500235E
:101EF8003B6607F144031A460121254801F088F999
:101F080001212348FFF7CAFD00212148FFF768FE99
:101F180000211F48FFF777FE1D48FFF787FE0023C3
:101F2800FB6100233B6200237B62002387F8283093
:101F380000237B854FF40053FB6200233B6300239F
:101F48007B634FF00073BB630023FB6300233B6498
:101F580007F11C0319460E4801F0BAF91020FFF7E3
:101F6800C9FC4FF400737B600223BB600023FB6055
:101F780000233B6100237B610123BB613B1D1946A4
:101F8800044800F0BAFC00BF7837BD4680BD00BFEA
:101F9800000001400010024080B58EB000AF07F18C
:101FA8001C0300221A605A609A60DA601A615A614A
:101FB8009A613B1D00221A605A609A60DA601A61C1
:101FC8005A614FF44010FFF717FC4FF48020FFF7D9
:101FD800A9FC0820FFF78EFC4FF480737B60022376
:101FE800BB600323FB6000233B6100237B61072365
:101FF800BB613B1D1946314800F07FFC4FF400736C
:102008007B600223BB600323FB6000233B6100234A
:102018007B610723BB613B1D1946284800F06DFC16
:102028004FF0006201212648FFF710FB0022012132
:102038002348FFF70FFA002201212148FFF7E2FAAF
:10204800002201211E48FFF729FA002201211C481D
:10205800FFF748FA4FF4806201211948FFF766FA42
:10206800002201211648FFF785FA002201211448B1
:10207800FFF7A4FA01211248FFF70CFB4FF4E133F4
:10208800FB6100233B6200237B620023BB620C23BD
:10209800FB6200233B6300237B6307F11C031946A3
:1020A800084802F0F1FB0748FFF7E0FD0548FFF795
:1020B800CDFD00BF3837BD4680BD00BF000C0240D3
:1020C800006002400048004080B500AF144B4FF05C
:1020D800A0421A60124B06225A60114B0222DA60A3
:1020E8000F4B00221A610E4B02229A610C4B0122FF
:1020F800DA610B4B00221A62094B00225A62084B24
:102108000122DA62064B00221A63054802F05CFCE1
:102118000346002B01D000F089F900BF80BD00BF45
:102128002401002080B500AF4FF40010FFF7E2FB58
:10213800FFF706F90346002200211846FFF756F973
:10214800034619460C20FFF727F90C20FFF706F97C
:1021580000BF80BD80B588B000AF07F1180300222A
:102168001A605A603B4600221A605A609A60DA6028
:102178001A615A610420FFF7BDFB8020FFF7BAFB04
:102188000120FFF7B7FB0220FFF7B4FB1020FFF791
:10219800B1FB0820FFF7AEFB4020FFF7ABFB0121A6
:1021A8009348FFF7F3FD4FF480419148FFF7EEFDA8
:1021B80040219048FFF7EAFD80218D48FFF7E6FDB2
:1021C8008D490220FFF7DEFB4FF40053BB6101236A
:1021D8003B7700237B770123BB7707F11803184669
:1021E80001F052FF00224FF400518448FFF791FD9F
:1021F80000224FF400518148FFF74EFD02233B6057
:1022080002237B600323BB600023FB6000233B6148
:102218000B237B613B461946784800F06EFB02238E
:102228003B6002237B600323BB600023FB60002329
:102238003B610B237B613B461946714800F05DFB0F
:1022480004233B6002237B600323BB600023FB6005
:1022580000233B610B237B613B461946684800F02D
:102268004CFB80233B6002237B600323BB6000237D
:10227800FB6000233B610B237B613B4619466048AA
:1022880000F03BFB10233B6002237B600323BB6011
:102298000023FB6000233B610B237B613B4619460F
:1022A800564800F02AFB20233B6002237B6003236F
:1022B800BB600023FB6000233B610B237B613B4633
:1022C80019464E4800F019FB01233B6001237B604F
:1022D8000023BB600023FB6000233B613B4619469B
:1022E800434800F00AFB4FF400533B6002237B6035
:1022F8000323BB600023FB6000233B610B237B614E
:102308003B4619463A4800F0F8FA4FF480433B60E0
:1023180001237B600023BB600023FB6000233B613B
:102328003B461946324800F0E8FA40233B60012357
:102338007B600023BB600023FB6000233B613B46BE
:1023480019462C4800F0D9FA80233B6000237B60B3
:1023580000233B613B461946264800F0CEFA042389
:102368003B6002237B600023BB600023FB600023EB
:102378003B6102237B613B461946224800F0BDFAC7
:102388004FF400633B6002237B600323BB600023A0
:10239800FB6000233B610B237B613B4619461548D4
:1023A80000F0ABFA4FF400533B6002237B60032339
:1023B800BB600023FB6000233B610B237B613B4632
:1023C80019460C4800F099FA80233B6001237B6092
:1023D8000023BB600023FB6000233B613B4619469A
:1023E800034800F08AFA00BF2037BD4680BD00BF11
:1023F80000040240001802400300F00000080240F8
:1024080000000240000C024080B582B000AF786046
:102418007B681B68044A934201D102F0A5F900BF0A
:102428000837BD4680BD00BF000C004080B400AF37
:1024380072B600BFFEE780B400AFFEE780B400AF1D
:10244800FEE780B400AFFEE780B400AFFEE780B4DB
:1024580000AFFEE780B400AF00BFBD465DF8047B67
:10246800704780B400AF00BFBD465DF8047B70477D
:1024780080B500AF024800F09BFB00BF80BD00BFE5
:102488002805002080B483B000AF7860074BD3F8EC
:10249800903023F0006205497B681343C1F89030FF
:1024A80000BF0C37BD465DF8047B7047003802401A
:1024B80080B483B000AF0F4B1B6C0E4A43F08053BF
:1024C80013640C4B1B6C03F080537B607B68094BD7
:1024D8005B6C084A43F480435364064B5B6C03F41B
:1024E80080433B603B6800BF0C37BD465DF8047B0A
:1024F800704700BF0038024080B58AB000AF7860EE
:1025080007F1140300221A605A609A60DA601A61AF
:102518007B681B68B3F1A04F44D10020FFF7B2FFDE
:10252800224B1B6B214A43F0010313631F4B1B6BA8
:1025380003F001033B613B694FF4E8537B610223DD
:10254800BB610023FB6103233B620A237B6207F123
:1025580014031946164801F06BFE4FF400737B61B3
:102568000023BB610023FB6107F1140319461048DF
:1025780001F05EFE0D4B5B6B0C4A43F08003536326
:102588000A4B5B6B03F08003FB60FB68074B5B6CDB
:10259800064A43F480435364044B5B6C03F4804362
:1025A800BB60BB6800BF2837BD4680BD003802400D
:1025B8000000024080B58CB000AF78600023FB6259
:1025C8000023BB6200227968322002F095F832209D
:1025D80002F0AEF81F4B1B6C1E4A43F0080313644D
:1025E8001C4B1B6C03F00803FB60FB6807F110022F
:1025F80007F114031146184601F0E8FD01F0D2FD79
:1026080003465B00FB62FB6A134AA2FB03239B0C95
:10261800013BBB62114B124A1A60104B40F2E73281
:10262800DA600E4ABB6A53600C4B00221A610B4BEE
:1026380000229A60094800F0E2F90346002B04D111
:10264800064800F03DFA034600E0012318463037FB
:10265800BD4680BD0038024083DE1B4328050020AC
:10266800000C004080B48BB000AFF860B9607A60AD
:10267800FB681A68BB687B617B6993FAA3F33B61CB
:102688003B69BB61BB69002B01D1202303E0BB6917
:10269800B3FA83F3DBB25B00032101FA03F3DB43F4
:1026A8001A40BB683B623B6A93FAA3F3FB61FB6980
:1026B8007B627B6A002B01D1202303E07B6AB3FA9B
:1026C80083F3DBB25B00796801FA03F31A43FB6812
:1026D8001A6000BF2C37BD465DF8047B704780B494
:1026E80085B000AFF860B9607A60FB685A68BB686B
:1026F800DB431A40BB68796801FB03F31A43FB68A4
:102708005A6000BF1437BD465DF8047B704780B43B
:102718008BB000AFF860B9607A60FB689A68BB68F4
:102728007B617B6993FAA3F33B613B69BB61BB693E
:10273800002B01D1202303E0BB69B3FA83F3DBB29A
:102748005B00032101FA03F3DB431A40BB683B62D9
:102758003B6A93FAA3F3FB61FB697B627B6A002BFC
:1027680001D1202303E07B6AB3FA83F3DBB25B0079
:10277800796801FA03F31A43FB689A6000BF2C37A3
:10278800BD465DF8047B704780B48BB000AFF8603D
:10279800B9607A60FB68DA68BB687B617B6993FA29
:1027A800A3F33B613B69BB61BB69002B01D12023CB
:1027B80003E0BB69B3FA83F3DBB25B00032101FAE0
:1027C80003F3DB431A40BB683B623B6A93FAA3F30B
:1027D800FB61FB697B627B6A002B01D1202303E04C
:1027E8007B6AB3FA83F3DBB25B00796801FA03F31F
:1027F8001A43FB68DA6000BF2C37BD465DF8047BDE
:10280800704780B48BB000AFF860B9607A60FB683D
:102818001A6ABB687B617B6993FAA3F33B613B69E6
:10282800BB61BB69002B01D1202303E0BB69B3FA6C
:1028380083F3DBB29B000F2101FA03F3DB431A4059
:10284800BB683B623B6A93FAA3F3FB61FB697B625B
:102858007B6A002B01D1202303E07B6AB3FA83F360
:10286800DBB29B00796801FA03F31A43FB681A622A
:1028780000BF2C37BD465DF8047B704780B48BB031
:1028880000AFF860B9607A60FB685A6ABB681B0AD7
:102898007B617B6993FAA3F33B613B69BB61BB69CD
:1028A800002B01D1202303E0BB69B3FA83F3DBB229
:1028B8009B000F2101FA03F3DB431A40BB681B0A94
:1028C8003B623B6A93FAA3F3FB61FB697B627B6A19
:1028D800002B01D1202303E07B6AB3FA83F3DBB238
:1028E8009B00796801FA03F31A43FB685A6200BF38
:1028F8002C37BD465DF8047B704780B58AB000AFC1
:102908007860396000237B6200233B623B681B6868
:10291800BB61BB6993FAA3F37B617B69FB61FB69CC
:10292800002B01D1202303E0FB69B3FA83F3DBB268
:102938007B6258E03B681A6801217B6A01FA03F35D
:1029480013403B623B6A002B4AD03B685B68012B13
:1029580003D03B685B68022B0ED13B689B681A4624
:10296800396A7868FFF7D3FE3B6819683B68DB680B
:102978001A467868FFF7B3FE3B681B691A46396A3E
:102988007868FFF701FF3B685B68022B21D13B6A3F
:10299800FB60FB6893FAA3F3BB60BB683B613B69D0
:1029A800002B01D1202303E03B69B3FA83F3DBB2A8
:1029B800072B07D83B685B691A46396A7868FFF7BE
:1029C80020FF06E03B685B691A46396A7868FFF7BA
:1029D80055FF3B685B681A46396A7868FFF742FE1C
:1029E8007B6A01337B623B681A687B6A22FA03F3CD
:1029F800002B9FD1002318462837BD4680BD80B5DF
:102A080082B000AF78607B68002B01D1012349E0D8
:102A18007B6893F83D30DBB2002B06D17B6800223F
:102A280083F83C20786800F041F87B68022283F83C
:102A38003D207B681A687B6804331946104600F00D
:102A4800FFF97B68012283F848207B68012283F81C
:102A58003E207B68012283F83F207B68012283F8AF
:102A680040207B68012283F841207B68012283F89B
:102A780042207B68012283F843207B68012283F887
:102A880044207B68012283F845207B68012283F873
:102A980046207B68012283F847207B68012283F85F
:102AA8003D20002318460837BD4680BD80B483B05A
:102AB80000AF786000BF0C37BD465DF8047B7047F7
:102AC80080B485B000AF78607B6893F83D30DBB2A6
:102AD800012B01D0012354E07B68022283F83D20BA
:102AE8007B681B68DA687B681B6842F00102DA6061
:102AF8007B681B68264A934222D07B681B68B3F127
:102B0800804F1DD07B681B68224A934218D07B688F
:102B18001B68214A934213D07B681B681F4A934263
:102B28000ED07B681B681E4A934209D07B681B68DD
:102B38001C4A934204D07B681B681B4A934215D1F8
:102B48007B681B689A68194B1340FB60FB68062B6F
:102B580015D0FB68B3F5803F11D07B681B681A68F5
:102B68007B681B6842F001021A6008E07B681B68FA
:102B78001A687B681B6842F001021A6000E000BF17
:102B8800002318461437BD465DF8047B704700BF24
:102B9800000001400004004000080040000C004014
:102BA80000040140004001400018004007000100F7
:102BB80080B582B000AF78607B681B681B6903F042
:102BC8000203022B22D17B681B68DB6803F0020337
:102BD800022B1BD17B681B686FF002021A617B68AD
:102BE80001221A777B681B689B6903F00303002B9B
:102BF80003D0786800F005F905E0786800F0F7F888
:102C0800786800F008F97B6800221A777B681B68EF
:102C18001B6903F00403042B22D17B681B68DB6863
:102C280003F00403042B1BD17B681B686FF00402BC
:102C38001A617B6802221A777B681B689B6903F418
:102C48004073002B03D0786800F0DBF805E0786863
:102C580000F0CDF8786800F0DEF87B6800221A777B
:102C68007B681B681B6903F00803082B22D17B686B
:102C78001B68DB6803F00803082B1BD17B681B6803
:102C88006FF008021A617B6804221A777B681B6858
:102C9800DB6903F00303002B03D0786800F0B1F878
:102CA80005E0786800F0A3F8786800F0B4F87B686D
:102CB80000221A777B681B681B6903F01003102B2E
:102CC80022D17B681B68DB6803F01003102B1BD133
:102CD8007B681B686FF010021A617B6808221A77FC
:102CE8007B681B68DB6903F44073002B03D07868AA
:102CF80000F087F805E0786800F079F8786800F067
:102D08008AF87B6800221A777B681B681B6903F0C6
:102D18000103012B0ED17B681B68DB6803F00103FC
:102D2800012B07D17B681B686FF001021A61786874
:102D3800FFF76AFB7B681B681B6903F08003802B25
:102D48000ED17B681B68DB6803F08003802B07D1FA
:102D58007B681B686FF080021A61786800F01AF9C6
:102D68007B681B681B6903F48073B3F5807F0ED101
:102D78007B681B68DB6803F08003802B07D17B68C6
:102D88001B686FF480721A61786800F00DF97B682F
:102D98001B681B6903F04003402B0ED17B681B683E
:102DA800DB6803F04003402B07D17B681B686FF09A
:102DB80040021A61786800F038F87B681B681B6964
:102DC80003F02003202B0ED17B681B68DB6803F01F
:102DD8002003202B07D17B681B686FF020021A6143
:102DE800786800F0CDF800BF0837BD4680BD80B4D4
:102DF80083B000AF786000BF0C37BD465DF8047B38
:102E0800704780B483B000AF786000BF0C37BD4610
:102E18005DF8047B704780B483B000AF786000BF72
:102E28000C37BD465DF8047B704780B483B000AFB3
:102E3800786000BF0C37BD465DF8047B7047000022
:102E480080B485B000AF786039607B681B68FB6030
:102E58007B68404A934213D07B68B3F1804F0FD010
:102E68007B683D4A93420BD07B683C4A934207D02B
:102E78007B683B4A934203D07B683A4A934208D125
:102E8800FB6823F07003FB603B685B68FA681343D8
:102E9800FB607B682F4A93422BD07B68B3F1804F4D
:102EA80027D07B682C4A934223D07B682B4A9342D5
:102EB8001FD07B682A4A93421BD07B68294A9342D9
:102EC80017D07B68284A934213D07B68274A9342DD
:102ED8000FD07B68264A93420BD07B68254A9342E1
:102EE80007D07B68244A934203D07B68234A9342E5
:102EF80008D1FB6823F44073FB603B68DB68FA6821
:102F08001343FB60FB6823F080023B685B69134353
:102F1800FB607B68FA681A603B689A687B68DA62CB
:102F28003B681A687B689A627B680A4A934203D0B6
:102F38007B680C4A934203D13B681A697B681A6321
:102F48007B6801225A6100BF1437BD465DF8047BD7
:102F5800704700BF00000140000400400008004026
:102F6800000C0040000401400040014000440140C2
:102F78000048014000180040001C004000200040AC
:102F880080B483B000AF786000BF0C37BD465DF8F1
:102F9800047B704780B483B000AF786000BF0C3703
:102FA800BD465DF8047B704780B483B000AF78609D
:102FB80000BF0C37BD465DF8047B704780B483B012
:102FC80000AF786039607B683A689A6200BF0C3756
:102FD800BD465DF8047B704780B483B000AF78606D
:102FE80039607B683A68DA6200BF0C37BD465DF825
:102FF800047B704780B483B000AF786039607B6829
:103008003A681A6300BF0C37BD465DF8047B704709
:1030180080B483B000AF786039607B683A685A63DF
:1030280000BF0C37BD465DF8047B704780B483B0A1
:1030380000AF786039607B683A689A6300BF0C37E4
:10304800BD465DF8047B704780B483B000AF7860FC
:1030580039607B683A68DA6300BF0C37BD465DF8B3
:10306800047B704780B483B000AF786039607B68B8
:103078003A681A6400BF0C37BD465DF8047B704798
:1030880080B483B000AF786039607B689B6D7B68E3
:103098003A689A6500BF0C37BD465DF8047B7047F7
:1030A80080B483B000AF786039607B683A68DA65CD
:1030B80000BF0C37BD465DF8047B704780B483B011
:1030C80000AF78607B685B6943F001027B685A61F6
:1030D80000BF0C37BD465DF8047B704780B584B0EF
:1030E80000AF786039607B681B68FB607B683D4A8D
:1030F800934213D07B68B3F1804F0FD07B683A4A74
:1031080093420BD07B68394A934207D07B68384A90
:10311800934203D07B68374A934206D1FB6823F079
:1031280070023B685B681343FB607B682D4A9342DF
:103138002BD07B68B3F1804F27D07B682A4A934213
:1031480023D07B68294A93421FD07B68284A934240
:103158001BD07B68274A934217D07B68264A934244
:1031680013D07B68254A93420FD07B68244A934248
:103178000BD07B68234A934207D07B68224A93424C
:1031880003D07B68214A934206D1FB6823F440723E
:103198003B68DB681343FB607B68FA681A603B682E
:1031A8009B6819467868FFF717FF3B681B88194624
:1031B8007868FFF703FF7B680A4A934203D07B686D
:1031C8000C4A934205D13B681B6919467868FFF79A
:1031D80011FF7868FFF772FF002318461037BD46C5
:1031E80080BD00BF0000014000040040000800400E
:1031F800000C004000040140004001400044014030
:103208000048014000180040001C00400020004019
:1032180080B586B000AFF860B9607A600123FB75AD
:10322800BB68B3F5801F45D0BB68B3F5801F48D88D
:10323800BB68B3F5803F36D0BB68B3F5803F40D854
:10324800BB68B3F5805F27D0BB68B3F5805F38D81B
:10325800BB68B3F5807F18D0BB68B3F5807F30D8E2
:10326800BB68012B03D0BB68102B07D029E0796815
:10327800F86800F0A7F80346FB7523E07968F8685A
:1032880000F00EF90346FB751CE07968F86800F059
:1032980079F90346FB7515E07968F86800F0E4F9F8
:1032A8000346FB750EE07968F86800F037FA0346C4
:1032B800FB7507E07968F86800F082FA0346FB7549
:1032C80000E000BFFB7D18461837BD4680BD0000F2
:1032D80080B485B000AF786039600023FB60FB687C
:1032E80023F0FF033A68127B1343FB60FB6823F467
:1032F80040723B689B681343FB60FB6823F4806261
:103308003B685B681343FB60FB6823F400623B681F
:103318001B681343FB60FB6823F480533A68D28927
:103328001343FB60FB6823F400523B681B6913439B
:10333800FB60FB6823F480423B685B6A1343FB60D5
:10334800FB6823F400423B685B6A1343FB607B68BD
:103358001A4A934203D07B68194A934206D1FB6804
:1033680023F470223B685B691343FB607B68134A54
:10337800934203D07B68124A934214D1FB6823F42A
:1033880070023B681B6A1343FB60FB6823F0807282
:103398003B689B691343FB60FB6823F000723B6842
:1033A800DB691343FB607B68FA685A64002318469C
:1033B8001437BD465DF8047B704700BF000001402C
:1033C8000004014080B586B000AF786039607B6842
:1033D8001B6A23F001027B681A627B681B6A7B61A7
:1033E8007B685B683B617B689B69FB60FB6823F0DB
:1033F8000303FB60FA68274B13403A6812681343CB
:10340800FB607B6923F002023B681B6913437B6105
:103418007B6923F001023B685B6813437B617B682F
:103428001D4A934203D07B681C4A93421ED17B6994
:1034380023F008023B685B699B0013437B617B694F
:1034480023F004023B689B689B0013437B613B6944
:1034580023F480723B689B6913433B613B6923F407
:1034680000723B68DB695B0013433B617B683A6928
:103478005A607B68FA689A613B68DB681946786825
:10348800FFF7C6FD7B687A691A6200231846183769
:10349800BD4680BD8FFFFEFF0000014000040140D3
:1034A80080B586B000AF786039607B681B6A23F00E
:1034B80010027B681A627B681B6A7B617B685B68A9
:1034C8003B617B689B69FB60FB6823F44073FB608E
:1034D800FA68294B13403A68126812021343FB60DA
:1034E8007B6923F020023B681B691B0113437B6146
:1034F8007B6923F010023B685B681B0113437B6107
:103508007B681E4A934203D07B681D4A93421FD1B1
:103518007B6923F080023B685B699B0113437B61F5
:103528007B6923F040023B689B689B0113437B61E6
:103538003B6923F480623B689B699B0013433B61B2
:103548003B6923F400623B68DB69DB0013433B61A2
:103558007B683A695A607B68FA689A613B68DB68FD
:1035680019467868FFF762FD7B687A691A6200235A
:1035780018461837BD4680BDFF8FFFFE000001408A
:103588000004014080B586B000AF786039607B6880
:103598001B6A23F480727B681A627B681B6A7B61F2
:1035A8007B685B683B617B68DB69FB60FB6823F0D9
:1035B8000303FB60FA68294B13403A681268134307
:1035C800FB607B6923F400723B681B691B02134391
:1035D8007B617B6923F480723B685B681B02134341
:1035E8007B617B681E4A934203D07B681D4A9342E5
:1035F8001FD17B6923F400623B685B699B0213431C
:103608007B617B6923F480623B689B689B02134360
:103618007B613B6923F480523B689B691B01134320
:103628003B613B6923F400523B68DB695B01134350
:103638003B617B683A695A607B68FA68DA613B6883
:10364800DB6819467868FFF7FFFC7B687A691A62BD
:10365800002318461837BD4680BD00BF8FFFFEFF08
:10366800000001400004014080B586B000AF7860DA
:1036780039607B681B6A23F480527B681A627B6816
:103688001B6A3B617B685B687B617B68DB69FB600D
:10369800FB6823F44073FB60FA681D4B13403A68DB
:1036A800126812021343FB603B6923F400523B6823
:1036B8001B691B0313433B613B6923F480523B683E
:1036C8005B681B0313433B617B68124A934203D038
:1036D8007B68114A934207D17B6923F480423B6897
:1036E8009B699B0113437B617B687A695A607B689D
:1036F800FA68DA613B68DB6819467868FFF7B2FC5C
:103708007B683A691A62002318461837BD4680BD9F
:10371800FF8FFFFE000001400004014080B584B027
:1037280000AF786039607B681B6A23F480327B685D
:103738001A627B681B6AFB607B685B6DBB60BA685A
:103748001C4B13403A6812681343BB60FB6823F4B0
:1037580000323B681B691B041343FB60FB6823F4BE
:1037680080323B685B681B041343FB607B68124A2A
:10377800934203D07B68114A934209D17B685B6806
:1037880023F480323B689B691B021A437B685A60AA
:103798007B68BA685A653B68DB6819467868FFF742
:1037A8006FFC7B68FA681A62002318461037BD461A
:1037B80080BD00BF8FFFFEFF0000014000040140F4
:1037C80080B584B000AF786039607B681B6A23F4E9
:1037D80080127B681A627B681B6AFB607B685B6D82
:1037E800BB60BA681C4B13403A6812681202134354
:1037F800BB60FB6823F400123B681B691B0513437D
:10380800FB60FB6823F480123B685B681B0513436D
:10381800FB607B68114A934203D07B68104A93424D
:1038280009D17B685B6823F480223B689B699B0213
:103838001A437B685A607B68BA685A653B68DB68DC
:1038480019467868FFF72CFC7B68FA681A6200232F
:1038580018461037BD4680BDFF8FFFFE00000140AF
:103868000004014080B400AF064B1B6803F002035C
:10387800022B0CBF01230023DBB21846BD465DF8BE
:10388800047B70470038024080B400AF064B1B6FC2
:1038980003F00203022B0CBF01230023DBB21846FE
:1038A800BD465DF8047B70470038024080B400AF25
:1038B800044B9B6803F00C031846BD465DF8047B77
:1038C800704700BF0038024080B400AF044B9B68CB
:1038D80003F0F0031846BD465DF8047B704700BF4F
:1038E8000038024080B400AF044B9B6803F4E053F7
:1038F8001846BD465DF8047B704700BF003802409B
:1039080080B400AF044B9B6803F460431846BD467F
:103918005DF8047B704700BF0038024080B483B074
:1039280000AF7860064BD3F890207B681A407B681C
:103938001B04134318460C37BD465DF8047B7047DB
:103948000038024080B483B000AF7860064BD3F8EB
:1039580090207B681A407B681B04134318460C3779
:10396800BD465DF8047B70470038024080B400AF64
:10397800044B5B6803F480031846BD465DF8047B7E
:10398800704700BF0038024080B400AF044B5B684A
:103998009B09C3F308031846BD465DF8047B7047CE
:1039A8000038024080B400AF044B5B6803F4403336
:1039B8001846BD465DF8047B704700BF00380240DA
:1039C80080B400AF044B5B6803F03F031846BD4664
:1039D8005DF8047B704700BF0038024080B584B0B2
:1039E80000AF78600023FB607B68032B33D17868D5
:1039F800FFF794FF0346B3F1031F16D0B3F1031F7B
:103A08001DD8714A934203D0704A934204D016E0FD
:103A180000F0F6F9F860D1E0FFF724FF0346002B29
:103A280000F0BB806A4BFB60B7E0FFF72DFF034651
:103A3800002B00F0B4804FF40043FB60AFE000F0CF
:103A4800DFF90346184600F003FA0346184600F06B
:103A580029FAF860B2E07B680C2B33D17868FFF75D
:103A68005DFF0346B3F10C1F16D0B3F10C1F1DD830
:103A7800584A934203D0584A934204D016E000F0C3
:103A8800BFF9F8609AE0FFF7EDFE0346002B00F05F
:103A980088804F4BFB6084E0FFF7F6FE0346002B5F
:103AA80000F081804FF40043FB607CE000F0A8F94F
:103AB8000346184600F0CCF90346184600F0DEF934
:103AC800F8607BE07B68B3F5406F31D17868FFF729
:103AD80025FF0346B3F10C2F15D0B3F10C2F1BD8DB
:103AE8003E4A934203D03E4A934204D014E000F089
:103AF80087F9F86062E0FFF7B5FE0346002B54D063
:103B0800334BFB6051E0FFF7BFFE0346002B4ED05E
:103B18004FF40043FB604AE000F072F90346184690
:103B280000F096F90346184600F0BCF9F86045E045
:103B38007B68302B3DD17868FFF7F0FE0346B3F180
:103B4800301F15D0B3F1301F1BD8264A934203D03B
:103B5800254A934204D014E000F052F9F8602DE0B1
:103B6800FFF780FE0346002B25D0194BFB6022E0AF
:103B7800FFF78AFE0346002B1FD04FF40043FB607B
:103B88001BE000F03DF90346184600F061F90346D2
:103B9800184600F073F9F86010E000BF0EE000BFAF
:103BA8000CE000BF0AE000BF08E000BF06E000BF6D
:103BB80004E000BF02E000BF00E000BFFB68184659
:103BC8001037BD4680BD00BF01000300020003009E
:103BD8000024F40004000C0008000C000004000C91
:103BE8000008000C100030002000300080B584B0C0
:103BF80000AF78600023FB607B68C02B33D1786806
:103C0800FFF7A0FE0346B3F1C01F16D0B3F1C01FE3
:103C18001DD8724A934203D0714A934204D016E0E9
:103C280000F0EEF8F860D3E0FFF71CFE0346002B27
:103C380000F0BD806B4BFB60B9E0FFF725FE034643
:103C4800002B00F0B6804FF40043FB60B1E000F0B9
:103C5800D7F80346184600F0FBF80346184600F06C
:103C68000DF9F860B4E07B68B3F5407F33D178682C
:103C7800FFF768FE0346B3F1032F16D0B3F1032F05
:103C88001DD8594A934203D0584A934204D016E0AB
:103C980000F0B6F8F8609BE0FFF7E4FD0346002B60
:103CA80000F089804F4BFB6085E0FFF7EDFD034690
:103CB800002B00F082804FF40043FB607DE000F0B1
:103CC8009FF80346184600F0C3F80346184600F06C
:103CD800D5F8F8607CE07B68B3F5405F31D178684F
:103CE800FFF730FE0346B3F1302F15D0B3F1302F74
:103CF8001BD83F4A934203D03E4A934204D014E073
:103D080000F07EF8F86063E0FFF7ACFD0346002B97
:103D180055D0344BFB6052E0FFF7B6FD0346002B4D
:103D28004FD04FF40043FB604BE000F069F80346C6
:103D3800184600F08DF80346184600F09FF8F86022
:103D480046E07B68B3F5404F3DD17868FFF7FAFD50
:103D58000346B3F1C02F15D0B3F1C02F1BD8264AA4
:103D6800934203D0254A934204D014E000F048F867
:103D7800F8602DE0FFF776FD0346002B25D0194BA0
:103D8800FB6022E0FFF780FD0346002B1FD04FF4B5
:103D98000043FB601BE000F033F80346184600F0D0
:103DA80057F80346184600F069F8F86010E000BFBD
:103DB8000EE000BF0CE000BF0AE000BF08E000BF53
:103DC80006E000BF04E000BF02E000BF00E000BF63
:103DD800FB6818461037BD4680BD00BF4000C000D4
:103DE8008000C0000024F40000010003000200036A
:103DF8000010003000200030004000C0008000C0EB
:103E080080B582B000AF00237B60FFF74FFD03460B
:103E1800082B0CD0082B0ED8002B02D0042B03D073
:103E280009E0094B7B6009E0084B7B6006E000F085
:103E38004DF8786002E0044B7B6000BF7B68184651
:103E48000837BD4680BD00BF0024F40000127A0088
:103E580080B582B000AF7860FFF736FD03461B09D6
:103E680003F00F03044AD35C1A467B68D340184614
:103E78000837BD4680BD00BF4853000880B582B0F2
:103E880000AF7860FFF72EFD03469B0A044AD35C17
:103E98001A467B68D34018460837BD4680BD00BF28
:103EA8005853000880B582B000AF7860FFF728FD4E
:103EB80003465B0B044AD35C1A467B68D34018461A
:103EC8000837BD4680BD00BF5853000890B583B081
:103ED80000AF00237B6000233B60FFF747FD38609D
:103EE8003B68002B04D03B68B3F5800F03D005E096
:103EF8000F4B7B6005E00F4B7B6002E00C4B7B6057
:103F080000BFFFF75DFD02467B68B3FBF2F4FFF7E5
:103F18003BFD034603FB04F4FFF744FD03461B0C7B
:103F280001335B00B4FBF3F318460C37BD4690BD74
:103F38000024F40000127A0080B483B000AF7860E7
:103F4800044A7B68136000BF0C37BD465DF8047BEC
:103F5800704700BF4400002080B483B000AF786091
:103F6800054B1A6804497B6813430B6000BF0C3784
:103F7800BD465DF8047B7047003C014080B483B0C7
:103F880000AF7860064B1A687B68DB43044913402E
:103F98000B6000BF0C37BD465DF8047B704700BF5F
:103FA800003C014080B483B000AF7860054B5A688C
:103FB80004497B6813434B6000BF0C37BD465DF86E
:103FC800047B7047003C014080B483B000AF786048
:103FD800064B5A687B68DB43044913404B6000BFBB
:103FE8000C37BD465DF8047B704700BF003C0140BC
:103FF80080B483B000AF7860054B9A6804497B6849
:1040080013438B6000BF0C37BD465DF8047B7047D7
:10401800003C014080B483B000AF7860064B9A68DA
:104028007B68DB43044913408B6000BF0C37BD46F7
:104038005DF8047B704700BF003C014080B483B04A
:1040480000AF7860054BDA6804497B681343CB609E
:1040580000BF0C37BD465DF8047B7047003C01404B
:1040680080B483B000AF7860064BDA687B68DB43C6
:1040780004491340CB6000BF0C37BD465DF8047B94
:10408800704700BF003C014080B584B000AF786045
:104098000023FB737B681B79002B65D07B681B684A
:1040A800002B6CD07B685B79022B1CD0022B25DCA3
:1040B800002B02D0012B0BD020E07B681B68184630
:1040C800FFF782FF7B681B681846FFF745FF18E07B
:1040D8007B681B681846FFF751FF7B681B6818460A
:1040E800FFF760FF0DE07B681B681846FFF734FF99
:1040F8007B681B681846FFF755FF02E00123FB7336
:1041080000BF7B689B79002B39D07B689B79032B98
:104118001CD0032B25DC012B02D0022B0BD020E076
:104128007B681B681846FFF79BFF7B681B6818466F
:10413800FFF75EFF24E07B681B681846FFF76AFFFD
:104148007B681B681846FFF779FF19E07B681B68D6
:104158001846FFF74DFF7B681B681846FFF76EFF90
:104168000EE00123FB730BE07B681B681846FFF722
:1041780005FF7B681B681846FFF726FF00E000BFB5
:10418800FB7B18461037BD4680BD000080B400AFE9
:10419800034B1B681846BD465DF8047B704700BF9B
:1041A8004400002080B500AFFFF7F0FF0246054B42
:1041B8009B689B0A03F007030349CB5C22FA03F3CD
:1041C800184680BD003802405853000880B483B0B8
:1041D80000AF786039607B680F221A60124B9B68C9
:1041E80003F003027B685A600F4B9B6803F0F002F0
:1041F8007B689A600C4B9B6803F4E0527B68DA603A
:10420800094B9B68DB0803F4E0527B681A61074B93
:104218001B6803F00F023B681A6000BF0C37BD46ED
:104228005DF8047B704700BF00380240003C024044
:1042380080B489B000AF786039600023FB61002347
:104248007B6100233B610023BB610023FB6175E1B7
:104258000122FB6902FA03F37B613B681B687A69F8
:1042680013403B613A697B699A4240F064813B683C
:104278005B6803F00303012B05D03B685B6803F020
:104288000303022B30D17B689B68BB61FB695B0031
:10429800032202FA03F3DB43BA691340BB613B68AC
:1042A800DA68FB695B0002FA03F3BA691343BB617E
:1042B8007B68BA699A607B685B68BB610122FB69AD
:1042C80002FA03F3DB43BA691340BB613B685B68DE
:1042D8001B0903F00102FB6902FA03F3BA691343ED
:1042E800BB617B68BA695A603B685B6803F003038B
:1042F800032B17D07B68DB68BB61FB695B0003227B
:1043080002FA03F3DB43BA691340BB613B689A685E
:10431800FB695B0002FA03F3BA691343BB617B686C
:10432800BA69DA603B685B6803F00303022B23D1A8
:10433800FB69DA087B68083253F82230BB61FB69F5
:1043480003F007039B000F2202FA03F3DB43BA6969
:104358001340BB613B681A69FB6903F007039B00C4
:1043680002FA03F3BA691343BB61FB69DA087B6895
:104378000832B96943F822107B681B68BB61FB6986
:104388005B00032202FA03F3DB43BA691340BB6103
:104398003B685B6803F00302FB695B0002FA03F306
:1043A800BA691343BB617B68BA691A603B685B688A
:1043B80003F44033002B00F0BE80664B5B6C654A0B
:1043C80043F480435364634B5B6C03F48043FB60AA
:1043D800FB68614AFB699B08023352F82330BB61D2
:1043E800FB6903F003039B000F2202FA03F3DB438C
:1043F800BA691340BB617B68584A934237D07B68DF
:10440800574A934231D07B68564A93422BD07B68F7
:10441800554A934225D07B68544A93421FD07B6803
:10442800534A934219D07B68524A934213D07B680F
:10443800514A93420DD07B68504A934207D07B681B
:104448004F4A934201D1092312E00A2310E00823BE
:104458000EE007230CE006230AE0052308E0042306
:1044680006E0032304E0022302E0012300E0002326
:10447800FA6902F0030292009340BA691343BB61E0
:104488003549FB699B080233BA6941F823203D4B43
:104498009B68BB613B69DB43BA691340BB613B68FE
:1044A8005B6803F48013002B03D0BA693B6913439C
:1044B800BB61344ABB699360324BDB68BB613B69C3
:1044C800DB43BA691340BB613B685B6803F40013C4
:1044D800002B03D0BA693B691343BB61294ABB6906
:1044E800D360284B5B68BB613B69DB43BA69134007
:1044F800BB613B685B6803F40033002B03D0BA69E7
:104508003B691343BB611F4ABB6953601D4B1B6862
:10451800BB613B69DB43BA691340BB613B685B68BD
:1045280003F48033002B03D0BA693B691343BB61A2
:10453800144ABB691360FB690133FB61FB690F2BEC
:104548007FF686AE00BF00BF2437BD465DF8047B0A
:10455800704700BF003802400038014000000240A8
:104568000004024000080240000C02400010024013
:104578000014024000180240001C024000200240C3
:1045880000240240003C014080B485B000AF786050
:104598007B6803F00703FB600B4BDB68BB60BA6802
:1045A8004FF6FF031340BB60FB681A02BB681A434F
:1045B800064B1343BB60044ABB68D36000BF143783
:1045C800BD465DF8047B704700ED00E00000FA0589
:1045D80080B400AF044BDB681B0A03F007031846DE
:1045E800BD465DF8047B704700ED00E080B483B001
:1045F80000AF0346FB7197F90730002B0BDBFB7903
:1046080003F01F02074997F907305B09012000FAF8
:1046180002F241F8232000BF0C37BD465DF8047B49
:10462800704700BF00E100E080B483B000AF0346EC
:104638003960FB7197F90730002B0ADB3B68DAB267
:104648000C4997F907301201D2B20B4483F80023C2
:104658000AE03B68DAB20849FB7903F00F03043B30
:104668001201D2B20B441A7600BF0C37BD465DF872
:10467800047B704700E100E000ED00E080B489B001
:1046880000AFF860B9607A60FB6803F00703FB616C
:10469800FB69C3F10703042B28BF0423BB61FB6933
:1046A8000433062B02D9FB69033B00E000237B613E
:1046B8004FF0FF32BB6902FA03F3DA43BB681A40D2
:1046C8007B699A404FF0FF317B6901FA03F3D943C4
:1046D8007B680B40134318462437BD465DF8047BBE
:1046E800704780B582B000AF78607868FFF74CFFFC
:1046F80000BF0837BD4680BD80B586B000AF034611
:10470800B9607A60FB7300237B61FFF761FF786112
:104718007A68B9687869FFF7B1FF024697F90F30F0
:1047280011461846FFF780FF00BF1837BD4680BD09
:1047380080B582B000AF0346FB7197F90730184681
:10474800FFF754FF00BF0837BD4680BD80B500AFF6
:104758000320FFF7C6FF0020FDF72CFFFDF7A8FE9A
:104768000023184680BD000080B400AF064B1B78BC
:104778001A46064B1B681344044A136000BFBD4623
:104788005DF8047B704700BF4000002074050020DE
:1047980080B400AF034B1B681846BD465DF8047B28
:1047A800704700BF7405002080B483B000AF786004
:1047B8007B681B6803F00103012B01D1012300E092
:1047C800002318460C37BD465DF8047B704780B45B
:1047D80083B000AF786039607B685B6823F440522F
:1047E8003B681A437B685A6000BF0C37BD465DF8CA
:1047F800047B704780B483B000AF786039607B6811
:104808009B6823F440723B681A437B689A6000BF38
:104818000C37BD465DF8047B704780B487B000AFA5
:10482800F860B9607A603B607B68B3F5004F1AD1D5
:10483800BB685A003B685B081A443B68B2FBF3F359
:104848009BB27B617A694FF6F07313403B617B69D9
:104858005B089BB203F007033A6913433B61FB68AB
:104868003A69DA600AE03B685A08BB681A443B6850
:10487800B2FBF3F39BB21A46FB68DA6000BF1C3741
:10488800BD465DF8047B704780B584B000AF7860A2
:1048980039600123FB730023BB607868FFF784FF4E
:1048A8000346002B79D17B681A683E4B13403A685F
:1048B80051683A68D26811433A68126911433A68F4
:1048C80092690A431A437B681A603B689B681946D9
:1048D8007868FFF77CFF3B685B6919467868FFF7E3
:1048E80089FF7B68304A934204D10320FFF776F8AA
:1048F800B86041E07B682D4A934204D10C20FFF751
:104908006DF8B86038E07B68294A934204D13020BA
:10491800FFF764F8B8602FE07B68264A934204D119
:10492800C020FFF763F9B86026E07B68224A93420B
:1049380005D14FF44070FFF759F9B8601CE07B6867
:104948001E4A934205D14FF44060FFF747F8B8601C
:1049580012E07B681A4A934205D14FF44050FFF7A2
:1049680045F9B86008E07B68164A934204D14FF4D1
:104978004040FFF73BF9B860BB68002B0DD03B689F
:104988001B68002B09D00023FB733B689A693B68BE
:104998001B68B9687868FFF740FFFB7B184610373B
:1049A800BD4680BDF369FFEF0010014000440040A0
:1049B80000480040004C00400050004000140140F6
:1049C80000780040007C0040F0B58FB00AAF7860F6
:1049D8007B68002B01D1012316E17B681B68BB6053
:1049E8007B6893F8BD33DBB2002B06D17B680022CD
:1049F80083F8BC237868FDF77FFD7B68032283F882
:104A0800BD23BB68DB6B03F48073002B02D17B688A
:104A180000221A617B681B68184600F075F97B68EC
:104A28001B683B607E686D4606F110040FCC0FC50D
:104A38000FCC0FC594E8030085E80300331D0ECBA7
:104A4800386800F009F90346002B05D07B6802227C
:104A580083F8BD230123D7E07B681B680021184633
:104A680000F063F90023FB734AE0FA7B7968134688
:104A7800DB009B1A9B000B443D3301221A70FA7B22
:104A880079681346DB009B1A9B000B443C33FA7B86
:104A98001A70FA7BFB7B98B279681346DB009B1A85
:104AA8009B000B44423302461A80FA7B796813460E
:104AB800DB009B1A9B000B443F3300221A70FA7BE1
:104AC80079681346DB009B1A9B000B444433002291
:104AD8001A60FA7B79681346DB009B1A9B000B442B
:104AE800483300221A60FA7B79681346DB009B1A68
:104AF8009B000B44503300221A60FB7B0133FB738D
:104B0800FA7B7B685B689A42AFD30023FB7344E06F
:104B1800FA7B79681346DB009B1A9B000B4403F26F
:104B2800FD1300221A70FA7B79681346DB009B1A82
:104B38009B000B4403F5FE73FA7B1A70FA7B7968C5
:104B48001346DB009B1A9B000B4403F2FF13002261
:104B58001A70FA7B79681346DB009B1A9B000B449A
:104B680003F5017300221A60FA7B79681346DB00AB
:104B78009B1A9B000B4403F5027300221A60FA7B10
:104B880079681346DB009B1A9B000B4403F50473FA
:104B980000221A60FB7B0133FB73FA7B7B685B683E
:104BA8009A42B5D37B681B683B607E686D4606F108
:104BB80010040FCC0FC50FCC0FC594E8030085E88F
:104BC8000300331D0ECB386800F0FCF80346002BB9
:104BD80005D07B68022283F8BD23012314E07B689B
:104BE800002283F838207B68012283F8BD237B6884
:104BF8005B6A012B02D1786800F00AF87B681B68B1
:104C0800184600F0B6FA002318461437BD46F0BD22
:104C180080B485B000AF78607B681B68FB607B68F8
:104C28000122C3F8FC237B68002283F8F423FB6885
:104C38009B6943F00062FB689A61FB685A6D054BFB
:104C48001343FA685365002318461437BD465DF8C8
:104C5800047B70470300001084B080B584B000AFB7
:104C6800786007F11C0080E80E003B6B012B20D117
:104C78007B689B6B23F480327B689A637B68DA6875
:104C8800204B13407A68D3607B68DB6823F44012BA
:104C98007B68DA60FB6C012B05D17B68DB6843F429
:104CA80080127B68DA60786800F092FA0346FB733A
:104CB80010E07B68DB6843F040027B68DA60786864
:104CC80000F086FA0346FB737B689B6B43F48032E3
:104CD8007B689A63BB6A012B0BD17B689B6843F0A6
:104CE80006027B689A607B689B6843F020027B68B9
:104CF8009A60FB7B18461037BD46BDE8804004B07B
:104D0800704700BFBFFFBDFF80B483B000AF7860BD
:104D18007B689B6823F001027B689A600023184631
:104D28000C37BD465DF8047B704780B584B000AF92
:104D380078600B46FB700023FB607B68DB6823F020
:104D4800C0427B68DA60FB78012B15D17B68DB6891
:104D580043F000527B68DA600120FCF7ABF9FB688E
:104D68000133FB60786800F025FA0346012B1ED05A
:104D7800FB68312BF0D91AE0FB78002B15D17B6842
:104D8800DB6843F080427B68DA600120FCF792F927
:104D9800FB680133FB60786800F00CFA0346002BCF
:104DA80005D0FB68312BF0D901E0012305E0FB6851
:104DB800322B01D1012300E0002318461037BD46ED
:104DC80080BD000084B080B586B000AF786007F180
:104DD800240080E80E000023FB757B68FB6000233D
:104DE8003B6109E07A683B6940339B001344002229
:104DF8005A603B6901333B613B690E2BF2D9FB6C6E
:104E0800002B1CD1FB6803F500635B68FA6802F5A8
:104E1800006243F0020353607B689B6B23F400122B
:104E28007B689A637B681B6843F040027B681A6062
:104E38007B681B6843F080027B681A6005E07B682A
:104E48009B6B43F400127B689A63FB6803F560630D
:104E58001A4600231360FB6803F500631946FB68D4
:104E680003F500631A460B681360BB6B012B0CD16A
:104E7800FB6A002B04D10021786800F061F908E092
:104E88000121786800F05CF903E00321786800F0FC
:104E980057F91021786800F0F3F80346002B01D089
:104EA8000123FB75786800F01DF90346002B01D03B
:104EB8000123FB75FB6803F500631A4600231361A1
:104EC800FB6803F500631A4600235361FB6803F58A
:104ED80000631A460023D36100233B6143E03B692A
:104EE8005A01FB68134403F510631B6803F0004381
:104EF800B3F1004F18D13B69002B0AD13B695A0125
:104F0800FB68134403F510631A464FF000631360FF
:104F180013E03B695A01FB68134403F510631A4612
:104F28004FF09043136008E03B695A01FB68134453
:104F380003F510631A46002313603B695A01FB68A6
:104F4800134403F510631A46002313613B695A01A1
:104F5800FB68134403F510631A464FF67F339360DA
:104F68003B6901333B617B6A3A699A42B7D30023B4
:104F78003B6143E03B695A01FB68134403F5306326
:104F88001B6803F00043B3F1004F18D13B69002BB5
:104F98000AD13B695A01FB68134403F530631A468A
:104FA8004FF00063136013E03B695A01FB68134438
:104FB80003F530631A464FF09043136008E03B69ED
:104FC8005A01FB68134403F530631A460023136043
:104FD8003B695A01FB68134403F530631A46002302
:104FE80013613B695A01FB68134403F530631A46A1
:104FF8004FF67F3393603B6901333B617B6A3A69C3
:105008009A42B7D3FB6803F500631B69FA6802F597
:10501800006223F4807313617B6800229A617B68C5
:105028006FF080425A613B6B002B05D17B689B690E
:1050380043F010027B689A617B689A690E4B1343B0
:105048007A689361FB6B002B05D07B689B6943F002
:1050580008027B689A61FB6C012B05D17B689A6911
:10506800064B13437A689361FB7D18461837BD4693
:10507800BDE8804004B0704700383C800400004020
:1050880080B485B000AF786039600023FB60FB68AE
:105098000133FB60124A934201D903231AE07B686B
:1050A8001B69002BF3DA0023FB603B689B0143F08C
:1050B80020027B681A61FB680133FB60084A93424F
:1050C80001D9032306E07B681B6903F02003202B2A
:1050D800F1D0002318461437BD465DF8047B7047AD
:1050E800400D030080B485B000AF78600023FB60FA
:1050F800FB680133FB60114A934201D9032317E08F
:105108007B681B69002BF3DA0023FB607B681022A5
:105118001A61FB680133FB60084A934201D90323F3
:1051280006E07B681B6903F01003102BF1D0002305
:1051380018461437BD465DF8047B7047400D0300E0
:1051480080B485B000AF78600B46FB707B68FB606D
:10515800FB6803F500631A68FB78F96801F50061DC
:1051680013430B60002318461437BD465DF8047BD3
:10517800704780B485B000AF78607B68FB60FB68DF
:1051880003F560631B68FA6802F5606223F00303A5
:105198001360FB6803F500635B68FA6802F5006258
:1051A80043F002035360002318461437BD465DF8E8
:1051B800047B704780B483B000AF78607B685B691C
:1051C80003F0010318460C37BD465DF8047B7047B1
:1051D80080B485B000AF78600023FB60FB680133C2
:1051E800FB60134A934201D903231AE07B681B69C9
:1051F800002BF3DA0023FB607B681B6943F0010294
:105208007B681A61FB680133FB60094A934201D944
:10521800032306E07B681B6903F00103012BF1D02F
:10522800002318461437BD465DF8047B704700BF5D
:10523800400D030080B400AF064BD3F88830054A10
:1052480043F47003C2F8883000BFBD465DF8047BA4
:10525800704700BF00ED00E0DFF834D00D480E497C
:105268000E4A002302E0D458C4500433C4188C42B8
:10527800F9D30B4A0B4C002301E013600432A2421D
:10528800FBD3FFF7D7FF00F011F8FBF7E5FB7047FA
:105298000000082000000020480000206853000893
:1052A8004800002078050020FEE7000070B50D4D8D
:1052B8000D4C641BA4100026A64209D10B4D0C4CC2
:1052C80000F020F8641BA4100026A64205D170BD8A
:1052D80055F8043B98470136EEE755F8043B9847E4
:1052E8000136F2E760530008605300086053000875
:1052F8006453000802440346934200D1704703F800
:10530800011BF9E7F8B500BFF8BC08BC9E4670471A
:0C531800F8B500BFF8BC08BC9E4670470A
:105324006C000020102840587088A0B800000000CD
:105334000404043C3C0000000000080000000800D5
:105344000800000000000000000000000102030447
:0C53540006070809000000000102030425
:045360001D02000822
:04536400F901000843
:1053680000000000000008400000000000000040AD
:10537800000000000000F03F0000000000000040B6
:105388000000000000000040000000000000004095
:10539800000000000000F03F000000000000004096
:0853A800010000000024F400E4
:04000005080052613C
:00000001FF
